{
  "_format": "hh-sol-artifact-1",
  "contractName": "AuctionArena",
  "sourceName": "contracts/AuctionArena.sol",
  "abi": [
    {
      "inputs": [],
      "name": "allAuctions",
      "outputs": [
        {
          "internalType": "contract Auction[]",
          "name": "",
          "type": "address[]"
        }
      ],
      "stateMutability": "view",
      "type": "function"
    },
    {
      "inputs": [
        {
          "internalType": "string",
          "name": "name",
          "type": "string"
        },
        {
          "internalType": "uint256",
          "name": "open_price",
          "type": "uint256"
        },
        {
          "internalType": "string",
          "name": "description",
          "type": "string"
        }
      ],
      "name": "createAuction",
      "outputs": [],
      "stateMutability": "nonpayable",
      "type": "function"
    },
    {
      "inputs": [
        {
          "internalType": "uint256",
          "name": "",
          "type": "uint256"
        }
      ],
      "name": "m_auctions",
      "outputs": [
        {
          "internalType": "contract Auction",
          "name": "",
          "type": "address"
        }
      ],
      "stateMutability": "view",
      "type": "function"
    }
  ],
  "bytecode": "0x608060405234801561001057600080fd5b5061057a806100206000396000f3fe608060405234801561001057600080fd5b50600436106100415760003560e01c80631bbcd4a51461004657806359cb01711461006457806363efaa3514610094575b600080fd5b61004e6100b0565b60405161005b91906102b0565b60405180910390f35b61007e6004803603810190610079919061031c565b61013e565b60405161008b9190610358565b60405180910390f35b6100ae60048036038101906100a991906104b9565b61017d565b005b6060600080548060200260200160405190810160405280929190818152602001828054801561013457602002820191906000526020600020905b8160009054906101000a900473ffffffffffffffffffffffffffffffffffffffff1673ffffffffffffffffffffffffffffffffffffffff16815260200190600101908083116100ea575b5050505050905090565b6000818154811061014e57600080fd5b906000526020600020016000915054906101000a900473ffffffffffffffffffffffffffffffffffffffff1681565b505050565b600081519050919050565b600082825260208201905092915050565b6000819050602082019050919050565b600073ffffffffffffffffffffffffffffffffffffffff82169050919050565b6000819050919050565b60006101f36101ee6101e9846101ae565b6101ce565b6101ae565b9050919050565b6000610205826101d8565b9050919050565b6000610217826101fa565b9050919050565b6102278161020c565b82525050565b6000610239838361021e565b60208301905092915050565b6000602082019050919050565b600061025d82610182565b610267818561018d565b93506102728361019e565b8060005b838110156102a357815161028a888261022d565b975061029583610245565b925050600181019050610276565b5085935050505092915050565b600060208201905081810360008301526102ca8184610252565b905092915050565b6000604051905090565b600080fd5b600080fd5b6000819050919050565b6102f9816102e6565b811461030457600080fd5b50565b600081359050610316816102f0565b92915050565b600060208284031215610332576103316102dc565b5b600061034084828501610307565b91505092915050565b6103528161020c565b82525050565b600060208201905061036d6000830184610349565b92915050565b600080fd5b600080fd5b6000601f19601f8301169050919050565b7f4e487b7100000000000000000000000000000000000000000000000000000000600052604160045260246000fd5b6103c68261037d565b810181811067ffffffffffffffff821117156103e5576103e461038e565b5b80604052505050565b60006103f86102d2565b905061040482826103bd565b919050565b600067ffffffffffffffff8211156104245761042361038e565b5b61042d8261037d565b9050602081019050919050565b82818337600083830152505050565b600061045c61045784610409565b6103ee565b90508281526020810184848401111561047857610477610378565b5b61048384828561043a565b509392505050565b600082601f8301126104a05761049f610373565b5b81356104b0848260208601610449565b91505092915050565b6000806000606084860312156104d2576104d16102dc565b5b600084013567ffffffffffffffff8111156104f0576104ef6102e1565b5b6104fc8682870161048b565b935050602061050d86828701610307565b925050604084013567ffffffffffffffff81111561052e5761052d6102e1565b5b61053a8682870161048b565b915050925092509256fea264697066735822122039fcb4dcf75f6fafb0aba97d7d802a591b1398be95517fc401cceee79248c92c64736f6c63430008090033",
  "linkReferences": {},
  "deployedLinkReferences": {}
}