{
  "_format": "hh-sol-artifact-1",
  "contractName": "Auction",
  "sourceName": "contracts/Auction.sol",
  "abi": [
    {
      "inputs": [
        {
          "internalType": "address payable",
          "name": "owner",
          "type": "address"
        },
        {
          "internalType": "string",
          "name": "title",
          "type": "string"
        },
        {
          "internalType": "uint256",
          "name": "open_price",
          "type": "uint256"
        },
        {
          "internalType": "string",
          "name": "description",
          "type": "string"
        }
      ],
      "stateMutability": "nonpayable",
      "type": "constructor"
    },
    {
      "inputs": [],
      "name": "auctionState",
      "outputs": [
        {
          "internalType": "enum Auction.State",
          "name": "",
          "type": "uint8"
        }
      ],
      "stateMutability": "view",
      "type": "function"
    },
    {
      "inputs": [],
      "name": "closeAuction",
      "outputs": [],
      "stateMutability": "nonpayable",
      "type": "function"
    },
    {
      "inputs": [],
      "name": "placeBid",
      "outputs": [
        {
          "internalType": "bool",
          "name": "",
          "type": "bool"
        }
      ],
      "stateMutability": "payable",
      "type": "function"
    }
  ],
  "bytecode": "0x608060405234801561001057600080fd5b5060405161067f38038061067f83398181016040528101906100329190610390565b836000806101000a81548173ffffffffffffffffffffffffffffffffffffffff021916908373ffffffffffffffffffffffffffffffffffffffff16021790555082600190805190602001906100889291906100db565b508160028190555080600390805190602001906100a69291906100db565b506000600460006101000a81548160ff021916908360028111156100cd576100cc61042f565b5b0217905550505050506104bf565b8280546100e79061048d565b90600052602060002090601f0160209004810192826101095760008555610150565b82601f1061012257805160ff1916838001178555610150565b82800160010185558215610150579182015b8281111561014f578251825591602001919060010190610134565b5b50905061015d9190610161565b5090565b5b8082111561017a576000816000905550600101610162565b5090565b6000604051905090565b600080fd5b600080fd5b600073ffffffffffffffffffffffffffffffffffffffff82169050919050565b60006101bd82610192565b9050919050565b6101cd816101b2565b81146101d857600080fd5b50565b6000815190506101ea816101c4565b92915050565b600080fd5b600080fd5b6000601f19601f8301169050919050565b7f4e487b7100000000000000000000000000000000000000000000000000000000600052604160045260246000fd5b610243826101fa565b810181811067ffffffffffffffff821117156102625761026161020b565b5b80604052505050565b600061027561017e565b9050610281828261023a565b919050565b600067ffffffffffffffff8211156102a1576102a061020b565b5b6102aa826101fa565b9050602081019050919050565b60005b838110156102d55780820151818401526020810190506102ba565b838111156102e4576000848401525b50505050565b60006102fd6102f884610286565b61026b565b905082815260208101848484011115610319576103186101f5565b5b6103248482856102b7565b509392505050565b600082601f830112610341576103406101f0565b5b81516103518482602086016102ea565b91505092915050565b6000819050919050565b61036d8161035a565b811461037857600080fd5b50565b60008151905061038a81610364565b92915050565b600080600080608085870312156103aa576103a9610188565b5b60006103b8878288016101db565b945050602085015167ffffffffffffffff8111156103d9576103d861018d565b5b6103e58782880161032c565b93505060406103f68782880161037b565b925050606085015167ffffffffffffffff8111156104175761041661018d565b5b6104238782880161032c565b91505092959194509250565b7f4e487b7100000000000000000000000000000000000000000000000000000000600052602160045260246000fd5b7f4e487b7100000000000000000000000000000000000000000000000000000000600052602260045260246000fd5b600060028204905060018216806104a557607f821691505b602082108114156104b9576104b861045e565b5b50919050565b6101b1806104ce6000396000f3fe6080604052600436106100345760003560e01c8063378252f2146100395780637fb4509914610050578063ecfc7ecc1461007b575b600080fd5b34801561004557600080fd5b5061004e610099565b005b34801561005c57600080fd5b5061006561009b565b604051610072919061012a565b60405180910390f35b6100836100ae565b6040516100909190610160565b60405180910390f35b565b600460009054906101000a900460ff1681565b600090565b7f4e487b7100000000000000000000000000000000000000000000000000000000600052602160045260246000fd5b600381106100f3576100f26100b3565b5b50565b6000819050610104826100e2565b919050565b6000610114826100f6565b9050919050565b61012481610109565b82525050565b600060208201905061013f600083018461011b565b92915050565b60008115159050919050565b61015a81610145565b82525050565b60006020820190506101756000830184610151565b9291505056fea2646970667358221220069841dd8525b0d0c70ce597906742e250e259161077f101b7e7ae1643eb6cc164736f6c63430008090033",
  "linkReferences": {},
  "deployedLinkReferences": {}
}